{
  "_format": "hh-sol-artifact-1",
  "contractName": "AITU_SE2331",
  "sourceName": "contracts/AITU_SE2331.sol",
  "abi": [
    {
      "inputs": [],
      "stateMutability": "nonpayable",
      "type": "constructor"
    },
    {
      "inputs": [
        {
          "internalType": "address",
          "name": "spender",
          "type": "address"
        },
        {
          "internalType": "uint256",
          "name": "allowance",
          "type": "uint256"
        },
        {
          "internalType": "uint256",
          "name": "needed",
          "type": "uint256"
        }
      ],
      "name": "ERC20InsufficientAllowance",
      "type": "error"
    },
    {
      "inputs": [
        {
          "internalType": "address",
          "name": "sender",
          "type": "address"
        },
        {
          "internalType": "uint256",
          "name": "balance",
          "type": "uint256"
        },
        {
          "internalType": "uint256",
          "name": "needed",
          "type": "uint256"
        }
      ],
      "name": "ERC20InsufficientBalance",
      "type": "error"
    },
    {
      "inputs": [
        {
          "internalType": "address",
          "name": "approver",
          "type": "address"
        }
      ],
      "name": "ERC20InvalidApprover",
      "type": "error"
    },
    {
      "inputs": [
        {
          "internalType": "address",
          "name": "receiver",
          "type": "address"
        }
      ],
      "name": "ERC20InvalidReceiver",
      "type": "error"
    },
    {
      "inputs": [
        {
          "internalType": "address",
          "name": "sender",
          "type": "address"
        }
      ],
      "name": "ERC20InvalidSender",
      "type": "error"
    },
    {
      "inputs": [
        {
          "internalType": "address",
          "name": "spender",
          "type": "address"
        }
      ],
      "name": "ERC20InvalidSpender",
      "type": "error"
    },
    {
      "anonymous": false,
      "inputs": [
        {
          "indexed": true,
          "internalType": "address",
          "name": "owner",
          "type": "address"
        },
        {
          "indexed": true,
          "internalType": "address",
          "name": "spender",
          "type": "address"
        },
        {
          "indexed": false,
          "internalType": "uint256",
          "name": "value",
          "type": "uint256"
        }
      ],
      "name": "Approval",
      "type": "event"
    },
    {
      "anonymous": false,
      "inputs": [
        {
          "indexed": true,
          "internalType": "address",
          "name": "from",
          "type": "address"
        },
        {
          "indexed": true,
          "internalType": "address",
          "name": "to",
          "type": "address"
        },
        {
          "indexed": false,
          "internalType": "uint256",
          "name": "value",
          "type": "uint256"
        }
      ],
      "name": "Transfer",
      "type": "event"
    },
    {
      "anonymous": false,
      "inputs": [
        {
          "indexed": true,
          "internalType": "address",
          "name": "sender",
          "type": "address"
        },
        {
          "indexed": true,
          "internalType": "address",
          "name": "receiver",
          "type": "address"
        },
        {
          "indexed": false,
          "internalType": "uint256",
          "name": "amount",
          "type": "uint256"
        },
        {
          "indexed": false,
          "internalType": "uint256",
          "name": "timestamp",
          "type": "uint256"
        }
      ],
      "name": "TransferDetails",
      "type": "event"
    },
    {
      "inputs": [
        {
          "internalType": "address",
          "name": "owner",
          "type": "address"
        },
        {
          "internalType": "address",
          "name": "spender",
          "type": "address"
        }
      ],
      "name": "allowance",
      "outputs": [
        {
          "internalType": "uint256",
          "name": "",
          "type": "uint256"
        }
      ],
      "stateMutability": "view",
      "type": "function"
    },
    {
      "inputs": [
        {
          "internalType": "address",
          "name": "spender",
          "type": "address"
        },
        {
          "internalType": "uint256",
          "name": "value",
          "type": "uint256"
        }
      ],
      "name": "approve",
      "outputs": [
        {
          "internalType": "bool",
          "name": "",
          "type": "bool"
        }
      ],
      "stateMutability": "nonpayable",
      "type": "function"
    },
    {
      "inputs": [
        {
          "internalType": "address",
          "name": "account",
          "type": "address"
        }
      ],
      "name": "balanceOf",
      "outputs": [
        {
          "internalType": "uint256",
          "name": "",
          "type": "uint256"
        }
      ],
      "stateMutability": "view",
      "type": "function"
    },
    {
      "inputs": [],
      "name": "decimals",
      "outputs": [
        {
          "internalType": "uint8",
          "name": "",
          "type": "uint8"
        }
      ],
      "stateMutability": "view",
      "type": "function"
    },
    {
      "inputs": [],
      "name": "getFormattedTimestamp",
      "outputs": [
        {
          "internalType": "string",
          "name": "",
          "type": "string"
        }
      ],
      "stateMutability": "view",
      "type": "function"
    },
    {
      "inputs": [],
      "name": "getRecentTransfer",
      "outputs": [
        {
          "internalType": "address",
          "name": "",
          "type": "address"
        },
        {
          "internalType": "address",
          "name": "",
          "type": "address"
        },
        {
          "internalType": "uint256",
          "name": "",
          "type": "uint256"
        },
        {
          "internalType": "uint256",
          "name": "",
          "type": "uint256"
        }
      ],
      "stateMutability": "view",
      "type": "function"
    },
    {
      "inputs": [],
      "name": "getTransferReceiver",
      "outputs": [
        {
          "internalType": "address",
          "name": "",
          "type": "address"
        }
      ],
      "stateMutability": "view",
      "type": "function"
    },
    {
      "inputs": [],
      "name": "getTransferSender",
      "outputs": [
        {
          "internalType": "address",
          "name": "",
          "type": "address"
        }
      ],
      "stateMutability": "view",
      "type": "function"
    },
    {
      "inputs": [],
      "name": "getTransferTimestamp",
      "outputs": [
        {
          "internalType": "uint256",
          "name": "",
          "type": "uint256"
        }
      ],
      "stateMutability": "view",
      "type": "function"
    },
    {
      "inputs": [],
      "name": "name",
      "outputs": [
        {
          "internalType": "string",
          "name": "",
          "type": "string"
        }
      ],
      "stateMutability": "view",
      "type": "function"
    },
    {
      "inputs": [],
      "name": "recentTransfer",
      "outputs": [
        {
          "internalType": "address",
          "name": "sender",
          "type": "address"
        },
        {
          "internalType": "address",
          "name": "receiver",
          "type": "address"
        },
        {
          "internalType": "uint256",
          "name": "amount",
          "type": "uint256"
        },
        {
          "internalType": "uint256",
          "name": "timestamp",
          "type": "uint256"
        }
      ],
      "stateMutability": "view",
      "type": "function"
    },
    {
      "inputs": [],
      "name": "symbol",
      "outputs": [
        {
          "internalType": "string",
          "name": "",
          "type": "string"
        }
      ],
      "stateMutability": "view",
      "type": "function"
    },
    {
      "inputs": [],
      "name": "totalSupply",
      "outputs": [
        {
          "internalType": "uint256",
          "name": "",
          "type": "uint256"
        }
      ],
      "stateMutability": "view",
      "type": "function"
    },
    {
      "inputs": [
        {
          "internalType": "address",
          "name": "recipient",
          "type": "address"
        },
        {
          "internalType": "uint256",
          "name": "amount",
          "type": "uint256"
        }
      ],
      "name": "transfer",
      "outputs": [
        {
          "internalType": "bool",
          "name": "",
          "type": "bool"
        }
      ],
      "stateMutability": "nonpayable",
      "type": "function"
    },
    {
      "inputs": [
        {
          "internalType": "address",
          "name": "sender",
          "type": "address"
        },
        {
          "internalType": "address",
          "name": "recipient",
          "type": "address"
        },
        {
          "internalType": "uint256",
          "name": "amount",
          "type": "uint256"
        }
      ],
      "name": "transferFrom",
      "outputs": [
        {
          "internalType": "bool",
          "name": "",
          "type": "bool"
        }
      ],
      "stateMutability": "nonpayable",
      "type": "function"
    }
  ],
  "bytecode": "0x60806040523480156200001157600080fd5b506040518060400160405280600b81526020017f414954555f5345323333310000000000000000000000000000000000000000008152506040518060400160405280600381526020017f554754000000000000000000000000000000000000000000000000000000000081525081600390816200008f919062000628565b508060049081620000a1919062000628565b505050620000e233620000b9620000e860201b60201c565b600a620000c791906200089f565b6107d0620000d69190620008f0565b620000f160201b60201c565b62000a43565b60006012905090565b600073ffffffffffffffffffffffffffffffffffffffff168273ffffffffffffffffffffffffffffffffffffffff1603620001665760006040517fec442f050000000000000000000000000000000000000000000000000000000081526004016200015d919062000980565b60405180910390fd5b6200017a600083836200017e60201b60201c565b5050565b600073ffffffffffffffffffffffffffffffffffffffff168373ffffffffffffffffffffffffffffffffffffffff1603620001d4578060026000828254620001c791906200099d565b92505081905550620002aa565b60008060008573ffffffffffffffffffffffffffffffffffffffff1673ffffffffffffffffffffffffffffffffffffffff1681526020019081526020016000205490508181101562000263578381836040517fe450d38c0000000000000000000000000000000000000000000000000000000081526004016200025a93929190620009e9565b60405180910390fd5b8181036000808673ffffffffffffffffffffffffffffffffffffffff1673ffffffffffffffffffffffffffffffffffffffff16815260200190815260200160002081905550505b600073ffffffffffffffffffffffffffffffffffffffff168273ffffffffffffffffffffffffffffffffffffffff1603620002f5578060026000828254039250508190555062000342565b806000808473ffffffffffffffffffffffffffffffffffffffff1673ffffffffffffffffffffffffffffffffffffffff168152602001908152602001600020600082825401925050819055505b8173ffffffffffffffffffffffffffffffffffffffff168373ffffffffffffffffffffffffffffffffffffffff167fddf252ad1be2c89b69c2b068fc378daa952ba7f163c4a11628f55a4df523b3ef83604051620003a1919062000a26565b60405180910390a3505050565b600081519050919050565b7f4e487b7100000000000000000000000000000000000000000000000000000000600052604160045260246000fd5b7f4e487b7100000000000000000000000000000000000000000000000000000000600052602260045260246000fd5b600060028204905060018216806200043057607f821691505b602082108103620004465762000445620003e8565b5b50919050565b60008190508160005260206000209050919050565b60006020601f8301049050919050565b600082821b905092915050565b600060088302620004b07fffffffffffffffffffffffffffffffffffffffffffffffffffffffffffffffff8262000471565b620004bc868362000471565b95508019841693508086168417925050509392505050565b6000819050919050565b6000819050919050565b60006200050962000503620004fd84620004d4565b620004de565b620004d4565b9050919050565b6000819050919050565b6200052583620004e8565b6200053d620005348262000510565b8484546200047e565b825550505050565b600090565b6200055462000545565b620005618184846200051a565b505050565b5b8181101562000589576200057d6000826200054a565b60018101905062000567565b5050565b601f821115620005d857620005a2816200044c565b620005ad8462000461565b81016020851015620005bd578190505b620005d5620005cc8562000461565b83018262000566565b50505b505050565b600082821c905092915050565b6000620005fd60001984600802620005dd565b1980831691505092915050565b6000620006188383620005ea565b9150826002028217905092915050565b6200063382620003ae565b67ffffffffffffffff8111156200064f576200064e620003b9565b5b6200065b825462000417565b620006688282856200058d565b600060209050601f831160018114620006a057600084156200068b578287015190505b6200069785826200060a565b86555062000707565b601f198416620006b0866200044c565b60005b82811015620006da57848901518255600182019150602085019450602081019050620006b3565b86831015620006fa5784890151620006f6601f891682620005ea565b8355505b6001600288020188555050505b505050505050565b7f4e487b7100000000000000000000000000000000000000000000000000000000600052601160045260246000fd5b60008160011c9050919050565b6000808291508390505b60018511156200079d578086048111156200077557620007746200070f565b5b6001851615620007855780820291505b808102905062000795856200073e565b945062000755565b94509492505050565b600082620007b857600190506200088b565b81620007c857600090506200088b565b8160018114620007e15760028114620007ec5762000822565b60019150506200088b565b60ff8411156200080157620008006200070f565b5b8360020a9150848211156200081b576200081a6200070f565b5b506200088b565b5060208310610133831016604e8410600b84101617156200085c5782820a9050838111156200085657620008556200070f565b5b6200088b565b6200086b84848460016200074b565b925090508184048111156200088557620008846200070f565b5b81810290505b9392505050565b600060ff82169050919050565b6000620008ac82620004d4565b9150620008b98362000892565b9250620008e87fffffffffffffffffffffffffffffffffffffffffffffffffffffffffffffffff8484620007a6565b905092915050565b6000620008fd82620004d4565b91506200090a83620004d4565b92508282026200091a81620004d4565b915082820484148315176200093457620009336200070f565b5b5092915050565b600073ffffffffffffffffffffffffffffffffffffffff82169050919050565b600062000968826200093b565b9050919050565b6200097a816200095b565b82525050565b60006020820190506200099760008301846200096f565b92915050565b6000620009aa82620004d4565b9150620009b783620004d4565b9250828201905080821115620009d257620009d16200070f565b5b92915050565b620009e381620004d4565b82525050565b600060608201905062000a0060008301866200096f565b62000a0f6020830185620009d8565b62000a1e6040830184620009d8565b949350505050565b600060208201905062000a3d6000830184620009d8565b92915050565b611c848062000a536000396000f3fe608060405234801561001057600080fd5b50600436106100f55760003560e01c806370a0823111610097578063aa6989e411610066578063aa6989e41461028c578063c956bbf8146102ad578063dd62ed3e146102cb578063eee6d0db146102fb576100f5565b806370a08231146101f057806393e5d49f1461022057806395d89b411461023e578063a9059cbb1461025c576100f5565b806318160ddd116100d357806318160ddd1461016657806323b872dd1461018457806328c8caae146101b4578063313ce567146101d2576100f5565b806306fdde03146100fa5780630922761d14610118578063095ea7b314610136575b600080fd5b61010261031c565b60405161010f9190611478565b60405180910390f35b6101206103ae565b60405161012d91906114db565b60405180910390f35b610150600480360381019061014b919061155d565b6103db565b60405161015d91906115b8565b60405180910390f35b61016e6103fe565b60405161017b91906115e2565b60405180910390f35b61019e600480360381019061019991906115fd565b610408565b6040516101ab91906115b8565b60405180910390f35b6101bc610585565b6040516101c991906115e2565b60405180910390f35b6101da610592565b6040516101e7919061166c565b60405180910390f35b61020a60048036038101906102059190611687565b61059b565b60405161021791906115e2565b60405180910390f35b6102286105e3565b6040516102359190611478565b60405180910390f35b6102466105f8565b6040516102539190611478565b60405180910390f35b6102766004803603810190610271919061155d565b61068a565b60405161028391906115b8565b60405180910390f35b610294610805565b6040516102a494939291906116b4565b60405180910390f35b6102b5610871565b6040516102c291906114db565b60405180910390f35b6102e560048036038101906102e091906116f9565b61089e565b6040516102f291906115e2565b60405180910390f35b610303610925565b60405161031394939291906116b4565b60405180910390f35b60606003805461032b90611768565b80601f016020809104026020016040519081016040528092919081815260200182805461035790611768565b80156103a45780601f10610379576101008083540402835291602001916103a4565b820191906000526020600020905b81548152906001019060200180831161038757829003601f168201915b5050505050905090565b6000600560010160009054906101000a900473ffffffffffffffffffffffffffffffffffffffff16905090565b6000806103e6610983565b90506103f381858561098b565b600191505092915050565b6000600254905090565b60008061041685858561099d565b9050801561057a5760405180608001604052808673ffffffffffffffffffffffffffffffffffffffff1681526020018573ffffffffffffffffffffffffffffffffffffffff16815260200184815260200142815250600560008201518160000160006101000a81548173ffffffffffffffffffffffffffffffffffffffff021916908373ffffffffffffffffffffffffffffffffffffffff16021790555060208201518160010160006101000a81548173ffffffffffffffffffffffffffffffffffffffff021916908373ffffffffffffffffffffffffffffffffffffffff16021790555060408201518160020155606082015181600301559050508373ffffffffffffffffffffffffffffffffffffffff168573ffffffffffffffffffffffffffffffffffffffff167f2ad7b48dbcb6e2397ba4cf7b270cb0621930dd334c2819cb78a7232e8315bb008542604051610571929190611799565b60405180910390a35b809150509392505050565b6000600560030154905090565b60006012905090565b60008060008373ffffffffffffffffffffffffffffffffffffffff1673ffffffffffffffffffffffffffffffffffffffff168152602001908152602001600020549050919050565b60606105f36005600301546109cc565b905090565b60606004805461060790611768565b80601f016020809104026020016040519081016040528092919081815260200182805461063390611768565b80156106805780601f1061065557610100808354040283529160200191610680565b820191906000526020600020905b81548152906001019060200180831161066357829003601f168201915b5050505050905090565b6000806106978484610c50565b905080156107fb5760405180608001604052803373ffffffffffffffffffffffffffffffffffffffff1681526020018573ffffffffffffffffffffffffffffffffffffffff16815260200184815260200142815250600560008201518160000160006101000a81548173ffffffffffffffffffffffffffffffffffffffff021916908373ffffffffffffffffffffffffffffffffffffffff16021790555060208201518160010160006101000a81548173ffffffffffffffffffffffffffffffffffffffff021916908373ffffffffffffffffffffffffffffffffffffffff16021790555060408201518160020155606082015181600301559050508373ffffffffffffffffffffffffffffffffffffffff163373ffffffffffffffffffffffffffffffffffffffff167f2ad7b48dbcb6e2397ba4cf7b270cb0621930dd334c2819cb78a7232e8315bb0085426040516107f2929190611799565b60405180910390a35b8091505092915050565b600080600080600560000160009054906101000a900473ffffffffffffffffffffffffffffffffffffffff16600560010160009054906101000a900473ffffffffffffffffffffffffffffffffffffffff16600560020154600560030154935093509350935090919293565b6000600560000160009054906101000a900473ffffffffffffffffffffffffffffffffffffffff16905090565b6000600160008473ffffffffffffffffffffffffffffffffffffffff1673ffffffffffffffffffffffffffffffffffffffff16815260200190815260200160002060008373ffffffffffffffffffffffffffffffffffffffff1673ffffffffffffffffffffffffffffffffffffffff16815260200190815260200160002054905092915050565b60058060000160009054906101000a900473ffffffffffffffffffffffffffffffffffffffff16908060010160009054906101000a900473ffffffffffffffffffffffffffffffffffffffff16908060020154908060030154905084565b600033905090565b6109988383836001610c73565b505050565b6000806109a8610983565b90506109b5858285610e4a565b6109c0858585610edf565b60019150509392505050565b606060006201518090506000610e1090506000603c905060006107b29050600080600086896109fb9190611820565b90505b600115610a56576000610a1085610fd3565b610a1c5761016d610a20565b61016e5b61ffff16905080821015610a345750610a56565b8082610a409190611851565b91508480610a4d90611893565b955050506109fe565b6000604051806101800160405280601f60ff168152602001601c60ff168152602001601f60ff168152602001601e60ff168152602001601f60ff168152602001601e60ff168152602001601f60ff168152602001601f60ff168152602001601e60ff168152602001601f60ff168152602001601e60ff168152602001601f60ff168152509050610ae585610fd3565b15610b1257601d816001600c8110610b0057610aff6118bd565b5b602002019060ff16908160ff16815250505b600093505b600c8460ff161015610b8557808460ff16600c8110610b3957610b386118bd565b5b602002015160ff168210610b8557808460ff16600c8110610b5d57610b5c6118bd565b5b602002015160ff1682610b709190611851565b91508380610b7d906118ec565b945050610b17565b600182610b929190611915565b9250600184610ba19190611949565b93506000888b610bb1919061197e565b905060008882610bc19190611820565b90506000888a84610bd2919061197e565b610bdc9190611820565b9050610bea8660ff1661103f565b610bf68860ff1661103f565b610c038a61ffff1661103f565b610c0f8560ff1661103f565b610c1b8560ff1661103f565b604051602001610c2f959493929190611acf565b6040516020818303038152906040529b505050505050505050505050919050565b600080610c5b610983565b9050610c68818585610edf565b600191505092915050565b600073ffffffffffffffffffffffffffffffffffffffff168473ffffffffffffffffffffffffffffffffffffffff1603610ce55760006040517fe602df05000000000000000000000000000000000000000000000000000000008152600401610cdc91906114db565b60405180910390fd5b600073ffffffffffffffffffffffffffffffffffffffff168373ffffffffffffffffffffffffffffffffffffffff1603610d575760006040517f94280d62000000000000000000000000000000000000000000000000000000008152600401610d4e91906114db565b60405180910390fd5b81600160008673ffffffffffffffffffffffffffffffffffffffff1673ffffffffffffffffffffffffffffffffffffffff16815260200190815260200160002060008573ffffffffffffffffffffffffffffffffffffffff1673ffffffffffffffffffffffffffffffffffffffff168152602001908152602001600020819055508015610e44578273ffffffffffffffffffffffffffffffffffffffff168473ffffffffffffffffffffffffffffffffffffffff167f8c5be1e5ebec7d5bd14f71427d1e84f3dd0314c0f7b2291e5b200ac8c7c3b92584604051610e3b91906115e2565b60405180910390a35b50505050565b6000610e56848461089e565b90507fffffffffffffffffffffffffffffffffffffffffffffffffffffffffffffffff811015610ed95781811015610ec9578281836040517ffb8f41b2000000000000000000000000000000000000000000000000000000008152600401610ec093929190611b46565b60405180910390fd5b610ed884848484036000610c73565b5b50505050565b600073ffffffffffffffffffffffffffffffffffffffff168373ffffffffffffffffffffffffffffffffffffffff1603610f515760006040517f96c6fd1e000000000000000000000000000000000000000000000000000000008152600401610f4891906114db565b60405180910390fd5b600073ffffffffffffffffffffffffffffffffffffffff168273ffffffffffffffffffffffffffffffffffffffff1603610fc35760006040517fec442f05000000000000000000000000000000000000000000000000000000008152600401610fba91906114db565b60405180910390fd5b610fce8383836111c3565b505050565b600080600483610fe39190611b7d565b61ffff1614610ff5576000905061103a565b60006064836110049190611b7d565b61ffff1614801561102757506000610190836110209190611b7d565b61ffff1614155b15611035576000905061103a565b600190505b919050565b606060008203611086576040518060400160405280600181526020017f300000000000000000000000000000000000000000000000000000000000000081525090506111be565b600082905060005b600082146110b85780806110a190611bae565b915050600a826110b19190611820565b915061108e565b60008167ffffffffffffffff8111156110d4576110d3611bf6565b5b6040519080825280601f01601f1916602001820160405280156111065781602001600182028036833780820191505090505b50905060006001836111189190611851565b90505b600086146111b657600a86611130919061197e565b603061113c9190611915565b60f81b828281518110611152576111516118bd565b5b60200101907effffffffffffffffffffffffffffffffffffffffffffffffffffffffffffff1916908160001a905350600a8661118e9190611820565b955060008111156111ac5780806111a490611c25565b9150506111b1565b6111b6565b61111b565b819450505050505b919050565b600073ffffffffffffffffffffffffffffffffffffffff168373ffffffffffffffffffffffffffffffffffffffff16036112155780600260008282546112099190611915565b925050819055506112e8565b60008060008573ffffffffffffffffffffffffffffffffffffffff1673ffffffffffffffffffffffffffffffffffffffff168152602001908152602001600020549050818110156112a1578381836040517fe450d38c00000000000000000000000000000000000000000000000000000000815260040161129893929190611b46565b60405180910390fd5b8181036000808673ffffffffffffffffffffffffffffffffffffffff1673ffffffffffffffffffffffffffffffffffffffff16815260200190815260200160002081905550505b600073ffffffffffffffffffffffffffffffffffffffff168273ffffffffffffffffffffffffffffffffffffffff1603611331578060026000828254039250508190555061137e565b806000808473ffffffffffffffffffffffffffffffffffffffff1673ffffffffffffffffffffffffffffffffffffffff168152602001908152602001600020600082825401925050819055505b8173ffffffffffffffffffffffffffffffffffffffff168373ffffffffffffffffffffffffffffffffffffffff167fddf252ad1be2c89b69c2b068fc378daa952ba7f163c4a11628f55a4df523b3ef836040516113db91906115e2565b60405180910390a3505050565b600081519050919050565b600082825260208201905092915050565b60005b83811015611422578082015181840152602081019050611407565b60008484015250505050565b6000601f19601f8301169050919050565b600061144a826113e8565b61145481856113f3565b9350611464818560208601611404565b61146d8161142e565b840191505092915050565b60006020820190508181036000830152611492818461143f565b905092915050565b600073ffffffffffffffffffffffffffffffffffffffff82169050919050565b60006114c58261149a565b9050919050565b6114d5816114ba565b82525050565b60006020820190506114f060008301846114cc565b92915050565b600080fd5b611504816114ba565b811461150f57600080fd5b50565b600081359050611521816114fb565b92915050565b6000819050919050565b61153a81611527565b811461154557600080fd5b50565b60008135905061155781611531565b92915050565b60008060408385031215611574576115736114f6565b5b600061158285828601611512565b925050602061159385828601611548565b9150509250929050565b60008115159050919050565b6115b28161159d565b82525050565b60006020820190506115cd60008301846115a9565b92915050565b6115dc81611527565b82525050565b60006020820190506115f760008301846115d3565b92915050565b600080600060608486031215611616576116156114f6565b5b600061162486828701611512565b935050602061163586828701611512565b925050604061164686828701611548565b9150509250925092565b600060ff82169050919050565b61166681611650565b82525050565b6000602082019050611681600083018461165d565b92915050565b60006020828403121561169d5761169c6114f6565b5b60006116ab84828501611512565b91505092915050565b60006080820190506116c960008301876114cc565b6116d660208301866114cc565b6116e360408301856115d3565b6116f060608301846115d3565b95945050505050565b600080604083850312156117105761170f6114f6565b5b600061171e85828601611512565b925050602061172f85828601611512565b9150509250929050565b7f4e487b7100000000000000000000000000000000000000000000000000000000600052602260045260246000fd5b6000600282049050600182168061178057607f821691505b60208210810361179357611792611739565b5b50919050565b60006040820190506117ae60008301856115d3565b6117bb60208301846115d3565b9392505050565b7f4e487b7100000000000000000000000000000000000000000000000000000000600052601260045260246000fd5b7f4e487b7100000000000000000000000000000000000000000000000000000000600052601160045260246000fd5b600061182b82611527565b915061183683611527565b925082611846576118456117c2565b5b828204905092915050565b600061185c82611527565b915061186783611527565b925082820390508181111561187f5761187e6117f1565b5b92915050565b600061ffff82169050919050565b600061189e82611885565b915061ffff82036118b2576118b16117f1565b5b600182019050919050565b7f4e487b7100000000000000000000000000000000000000000000000000000000600052603260045260246000fd5b60006118f782611650565b915060ff820361190a576119096117f1565b5b600182019050919050565b600061192082611527565b915061192b83611527565b9250828201905080821115611943576119426117f1565b5b92915050565b600061195482611650565b915061195f83611650565b9250828201905060ff811115611978576119776117f1565b5b92915050565b600061198982611527565b915061199483611527565b9250826119a4576119a36117c2565b5b828206905092915050565b600081905092915050565b60006119c5826113e8565b6119cf81856119af565b93506119df818560208601611404565b80840191505092915050565b7f2f00000000000000000000000000000000000000000000000000000000000000600082015250565b6000611a216001836119af565b9150611a2c826119eb565b600182019050919050565b7f2000000000000000000000000000000000000000000000000000000000000000600082015250565b6000611a6d6001836119af565b9150611a7882611a37565b600182019050919050565b7f3a00000000000000000000000000000000000000000000000000000000000000600082015250565b6000611ab96001836119af565b9150611ac482611a83565b600182019050919050565b6000611adb82886119ba565b9150611ae682611a14565b9150611af282876119ba565b9150611afd82611a14565b9150611b0982866119ba565b9150611b1482611a60565b9150611b2082856119ba565b9150611b2b82611aac565b9150611b3782846119ba565b91508190509695505050505050565b6000606082019050611b5b60008301866114cc565b611b6860208301856115d3565b611b7560408301846115d3565b949350505050565b6000611b8882611885565b9150611b9383611885565b925082611ba357611ba26117c2565b5b828206905092915050565b6000611bb982611527565b91507fffffffffffffffffffffffffffffffffffffffffffffffffffffffffffffffff8203611beb57611bea6117f1565b5b600182019050919050565b7f4e487b7100000000000000000000000000000000000000000000000000000000600052604160045260246000fd5b6000611c3082611527565b915060008203611c4357611c426117f1565b5b60018203905091905056fea26469706673582212209a65ac41190e04581af7e8ab8edd5c0a35d688c52f59ef64a9b9d4780a557ab364736f6c63430008140033",
  "linkReferences": {},
  "deployedLinkReferences": {}
}